:020000040800F2
:1000000000000220011E00087D0800087F0800088B
:100010008108000883080008850800080000000027
:100020000000000000000000000000008708000839
:1000300089080008000000008B0800088D080008EF
:10004000511E0008511E0008511E0008511E0008D4
:10005000511E0008511E0008511E0008511E0008C4
:10006000511E0008511E0008511E0008511E0008B4
:10007000511E0008511E0008511E0008511E0008A4
:10008000511E0008511E0008511E0008511E000894
:10009000511E0008511E0008511E0008511E000884
:1000A000511E0008511E0008511E0008511E000874
:1000B000511E0008511E0008511E0008511E000864
:1000C000511E0008511E0008511E0008511E000854
:1000D000511E0008511E0008511E0008511E000844
:1000E000511E0008511E0008511E0008511E000834
:1000F000511E0008511E0008511E0008511E000824
:10010000511E0008511E0008511E0008511E000813
:10011000511E0008511E0008511E0008511E000803
:10012000511E0008511E0008511E0008511E0008F3
:10013000511E00080000000000000000511E0008D1
:10014000511E0008511E0008511E0008511E0008D3
:10015000511E0008511E0008511E0008511E0008C3
:10016000511E0008511E0008511E0008511E0008B3
:10017000511E0008511E0008511E0008000000001A
:1001800000000000511E00080000000000000000F8
:10019000511E00080000000000000000511E000871
:1001A000000000000000000000000000511E0008D8
:1001B000511E0008511E0008511E0008511E000863
:0401C000511E0008C4
:1001C40010B5054C237833B9044B13B10448AFF38D
:1001D40000800123237010BD0C00002000000000EB
:1001E400AC1E000808B5034B1BB103490348AFF329
:1001F400008008BD0000000010000020AC1E0008B4
:1002040053B94AB9002908BF00281CBF4FF0FF3179
:100214004FF0FF3000F06AB9ADF1080C6DE904CE7F
:1002240000F006F8DDF804E0DDE9022304B07047CD
:100234002DE9F047089D0C46002B4ED194468C4581
:100244008646B2FA82F262D94AB1C2F120039140E1
:1002540020FA03F30CFA02FC194300FA02FE4FEAF7
:100264001C471FFA8CF6B1FBF7F44FEA1E4307FB59
:10027400141143EA014304FB06F199420AD91CEB29
:10028400030304F1FF3080F01281994240F20F81A0
:10029400023C6344591A1FFA8EF3B1FBF7F007FBD3
:1002A400101143EA014300FB06F69E420AD91CEBF7
:1002B400030300F1FF3180F0FC809E4240F2F9809C
:1002C400634402389B1B40EA044000211DB1D34023
:1002D4000022C5E90032BDE8F0878B4205D90DB193
:1002E400C5E9000100210846F5E7B3FA83F10029C6
:1002F40046D1A34202D39042C0F0F080861A64EB48
:1003040003030120002DE6D0C5E90063E3E7002ADA
:1003140040F09080A1EB0C044FEA1C481FFA8CF7C4
:100324000121B4FBF8F64FEA1E4308FB164443EAE6
:10033400044307FB06F0984208D91CEB030306F1BB
:10034400FF3402D2984200F2CD8026461C1A1FFACE
:100354008EF3B4FBF8F008FB104443EA044300FBBB
:1003640007F79F4208D91CEB030300F1FF3402D2C4
:100374009F4200F2B0802046DB1B40EA0640A5E71E
:10038400C1F120068B4022FA06F71F4320FA06FC2F
:1003940004FA01F343EA0C03F44000FA01F8380CC0
:1003A4004FEA1349B4FBF0FE1FFA87FC00FB1E441E
:1003B40049EA04440EFB0CF9A14502FA01F20AD9F8
:1003C4003C190EF1FF3A80F08480A14540F281800F
:1003D400AEF1020E3C44A4EB09041FFA83F9B4FB0A
:1003E400F0F300FB134449EA044403FB0CFCA4456A
:1003F40007D93C1903F1FF3067D2A44565D9023B04
:100404003C4443EA0E40A0FB0293A4EB0C049C4240
:10041400CE469C4651D34ED055B1B8EB0E0364EB97
:100424000C0404FA06F6CB401E43CC40C5E9006434
:10043400002150E7C2F1200320FA03F10CFA02FC78
:1004440024FA03F394400C434FEA1C4800FA02FEDA
:100454001FFA8CF7B3FBF8F008FB1031230C43EAC6
:10046400014300FB07F1994208D91CEB030300F197
:10047400FF362CD299422AD9023863445B1AA4B2BB
:10048400B3FBF8F108FB113344EA034401FB07F31F
:10049400A34208D91CEB040401F1FF3613D2A34292
:1004A40011D902396444E41A41EA004139E70446A7
:1004B400F0E6084606E7C845AED2B9EB020E63EB98
:1004C400070C0138A8E73146EDE7034699E73046C3
:1004D400D4E7D6467FE7634402384DE70646234611
:1004E40008460FE7023E634430E700BF704700BF91
:1004F4002DE9F0438BB000240594069407940894E6
:1005040009940194384B1A6B42F004021A631A6B73
:1005140002F004020192019A02941A6B42F08002E2
:100524001A631A6B02F080020292029A03941A6B05
:1005340042F001021A631A6B02F001020392039A59
:1005440004941A6B42F002021A631B6B03F0020359
:100554000493049BDFF89C9022461021484600F047
:10056400C5FF224F22461021384600F0BFFF204D20
:1005740022460521284600F0B9FF4FF01008CDF8B7
:100584001480012606960794089405A9484600F0AD
:10059400BDFECDF8148006960794089405A9384644
:1005A40000F0B4FE202305934FF48818CDF818808A
:1005B400079405A9384600F0A9FE0523059306967D
:1005C4000794089405A9284600F0A0FE40F20243CF
:1005D4000593CDF81880079405A9284600F096FEE7
:1005E4000BB0BDE8F08300BF0038024000080240B1
:1005F400000402400000024072B6FEE708B50D4850
:100604000D4B03604FF48273436000238360C36027
:10061400036143614FF400728261C3610362436208
:1006240083620A23C36200F057FA00B908BDFFF7DA
:10063400E3FF00BF480100200030014000B58FB047
:1006440000230A930B930C930D930893099301933E
:100654000293039304930593069307932B482C4A20
:100664000260436083604FF6FF72C260036183617E
:1006740001F032F9002839D14FF480530A930AA9C2
:10068400224801F034FA002832D1204801F050F910
:1006940000282FD100230893099308A91B4801F0CF
:1006A400A5FA48BB602301930022029203920592AB
:1006B40001A9164801F0A0F900BB04220DEB0201C8
:1006C400124801F099F9D8B9082201A90F4801F09C
:1006D40093F9B8B90C2201A90C4801F08DF998B925
:1006E4000A4800F041F90FB05DF804FBFFF784FFFE
:1006F400FFF782FFFFF780FFFFF77EFFFFF77CFF26
:10070400FFF77AFFFFF778FFFFF776FF000100207D
:100714000008004008B50A480A4B03604FF4E1336F
:10072400436000238360C36003610C2242618361E0
:10073400C36101F029FB00B908BDFFF75DFF00BFED
:10074400B80000200010014008B50A480A4B0360B5
:100754004FF4E133436000238360C36003610C22E0
:1007640042618361C36101F00FFB00B908BDFFF76B
:1007740043FF00BF700000200044004008B50A4851
:100784000A4B03604FF4E133436000238360C3608A
:1007940003610C2242618361C36101F0F5FA00B97F
:1007A40008BDFFF729FF00BF280000200014014006
:1007B40000B595B03422002107A801F048FB0023BE
:1007C4000293039304930593069300931F4A116CB9
:1007D40041F080511164126C02F080520092009A30
:1007E40001931B490A6822F4404242F480420A60A1
:1007F4000A6802F440420192019A022207920121FE
:100804000A9110210B910D920E9308230F935A23F2
:10081400109311921292139207A800F055FB80B91D
:100824000F23029302210391002304934FF4805277
:100834000592069302A800F0AFF920B915B05DF84F
:1008440004FBFFF7D9FEFFF7D7FE00BF00380240D4
:100854000070004008B500F0DFFEFFF7A9FFFFF7C6
:1008640047FEFFF7CBFEFFF7E9FEFFF753FFFFF765
:100874006BFFFFF783FFFEE7FEE7FEE7FEE7FEE719
:10088400FEE770477047704708B500F0DFFE08BD0B
:1008940082B0002100910B4B5A6C42F480425A649E
:1008A4005A6C02F480420092009A01911A6C42F050
:1008B40080521A641B6C03F080530193019B02B0B5
:1008C400704700BF0038024000B589B0002303938D
:1008D40004930593069307930268154B9A4202D03A
:1008E40009B05DF804FB0021019103F584335A6CCF
:1008F40042F480525A645A6C02F480520192019A72
:1009040002911A6B42F001021A631B6B03F001039C
:100914000293029BE023039302230493032306938D
:100924000523079303A9034800F0F0FCD8E700BFB0
:1009340000300140000002400268094B9A4200D096
:10094400704782B000230193064B1A6C42F00402F4
:100954001A641B6C03F004030193019B02B07047FB
:10096400000800400038024000B587B0002301931E
:10097400029303930493059302680E4B9A4202D0A8
:1009840007B05DF804FB002300930B4B1A6B42F095
:1009940002021A631B6B03F002030093009B4FF4E3
:1009A4007073019302230293059301A9034800F095
:1009B400ADFCE5E7000800400038024000040240B6
:1009C40000B58DB000230793089309930A930B9302
:1009D40003683B4A934208D03A4A934229D03A4AA0
:1009E400934249D00DB05DF804FB00210191374BCF
:1009F4005A6C42F010025A645A6C02F010020192CE
:100A0400019A02911A6B42F001021A631B6B03F004
:100A140001030293029B4FF4C063079302230893DC
:100A240003230A9307230B9307A9294800F06EFCBC
:100A3400D8E700210391254B1A6C42F400321A6462
:100A44001A6C02F400320392039A04911A6B42F076
:100A540001021A631B6B03F001030493049B0C2330
:100A640007930223089303230A9307230B9307A9ED
:100A7400174800F04BFCB5E700210591134B5A6C65
:100A840042F020025A645A6C02F020020592059A40
:100A940006911A6B42F004021A631B6B03F0040301
:100AA4000693069BC02307930223089303230A9308
:100AB40008230B9307A9074800F028FC92E700BF1E
:100AC400001001400044004000140140003802407E
:100AD400000002400008024000285AD010B5044625
:100AE400436A33B94368B3F5827F05D00023C361F9
:100AF40002E00023036143610023A36294F85130B0
:100B0400002B40D0022384F851302268136823F06C
:100B140040031360636803F48273A26802F404421E
:100B24001343E26802F400621343226902F00202F2
:100B34001343626902F001021343A26902F40072D2
:100B44001343E26902F038021343226A02F080027E
:100B54001343A26A02F40052216813430B60638BAF
:100B640003F00403626A02F01002216813434B602D
:100B74002268D36923F40063D361002060650123F4
:100B840084F8513010BD84F850302046FFF79CFEA5
:100B9400B8E7012070470000002800F09B8070B582
:100BA4000D4604464F4B1B6803F00F038B4208D2DB
:100BB400CBB24C4A1370136803F00F038B4240F01E
:100BC4008B80236813F0020F17D013F0040F04D0A6
:100BD400454A936843F4E0539360236813F0080F85
:100BE40004D0414A936843F4604393603E4A936857
:100BF40023F0F003A1680B439360236813F0010F03
:100C040032D06368012B21D09A1E012A25D9364A95
:100C1400126812F0020F61D033498A6822F003028D
:100C240013438B6000F01EFD06462F4B9B6803F0B8
:100C34000C036268B3EB820F16D000F013FD801B27
:100C440041F288339842F0D9032042E0264A1268E0
:100C540012F4003FE0D101203BE0234A126812F075
:100C6400007FD9D1012034E01E4B1B6803F00F0331
:100C7400AB4207D9EAB21B4B1A701B6803F00F038F
:100C8400AB422DD1236813F0040F06D0164A9368A3
:100C940023F4E053E1680B439360236813F0080FD7
:100CA40007D0114A936823F46043216943EAC103DE
:100CB400936000F047F80C4B9B68C3F303130B4A93
:100CC400D35CD8400A4B18600A4B186800F07EFCCD
:100CD400002070BD012070470120FAE70120F8E7E9
:100CE4000120F6E7003C024000380240CC1E000818
:100CF4000800002004000020014B1868704700BF62
:100D04000800002008B5FFF7F7FF044B9B68C3F306
:100D14008223034AD35CD84008BD00BF0038024098
:100D2400C41E000808B5FFF7E7FF044B9B68C3F334
:100D34004233034AD35CD84008BD00BF00380240A8
:100D4400C41E000808B55E4B9B6803F00C03082B17
:100D540003D00C2B5BD05B4808BD594B5A6802F09A
:100D64003F025B6813F4800F2CD0554B5868C0F3D6
:100D740088104FEA401CBCEB000C6EEB0E0E4FEAE1
:100D84008E1343EA9C634FEA8C11B1EB0C0163EBC5
:100D94000E03DB0043EA5173C90011EB000C43F16D
:100DA4000003990200234FEA8C2041EA9C51FFF78B
:100DB40027FA434B5B68C3F3014301335B00B0FB89
:100DC400F3F0C9E73E4B5868C0F388104FEA401C63
:100DD400BCEB000C6EEB0E0E4FEA8E1343EA9C63E1
:100DE4004FEA8C11B1EB0C0163EB0E03DB0043EA19
:100DF4005173C90011EB000C43F100039902002365
:100E04004FEA8C2041EA9C51FFF7FAF9D1E72C4BC9
:100E14005A6802F03F025B6813F4800F2AD0284B13
:100E24005868C0F388104FEA401CBCEB000C6EEB12
:100E34000E0E4FEA8E1343EA9C634FEA8C11B1EB1A
:100E44000C0163EB0E03DB0043EA5173C90011EBA1
:100E5400000C43F10003990200234FEA8C2041EA7D
:100E64009C51FFF7CDF9164B5B68C3F30273B0FBDB
:100E7400F3F071E7124B5868C0F388104FEA401C36
:100E8400BCEB000C6EEB0E0E4FEA8E1343EA9C6330
:100E94004FEA8C11B1EB0C0163EB0E03DB0043EA68
:100EA4005173C90011EB000C43F1000399020023B4
:100EB4004FEA8C2041EA9C51FFF7A2F9D3E700BF27
:100EC400003802400024F400002800F0018270B5CC
:100ED40082B00446036813F0010F41D0994B9B681C
:100EE40003F00C03042B32D0964B9B6803F00C03E5
:100EF400082B27D0934B9B6803F00C030C2B59D081
:100F04006368B3F5803F5BD0B3F5A02F5ED08D4B03
:100F14001A6822F480321A601A6822F480221A6055
:100F24006368002B5CD000F09DFB0546854B1B6875
:100F340013F4003F14D100F095FB401B6428F5D94D
:100F44000320CCE17F4B5B6813F4800FD2D07D4B40
:100F54001B6813F4003F03D06368002B00F0BA81D0
:100F6400236813F0020F60D0764B9B6813F00C0FCC
:100F74004AD0744B9B6803F00C03082B3FD0714B91
:100F84009B6803F00C030C2B69D0E368002B75D02D
:100F94006D4B01221A6000F065FB0546694B1B6826
:100FA40013F0020F61D100F05DFB401B0228F5D95C
:100FB400032094E1634B5B6813F4800FA0D0C6E771
:100FC400604A136843F480331360A9E75D4B1A68E1
:100FD40042F480221A601A6842F480321A609FE751
:100FE40000F040FB0546574B1B6813F4003FB7D095
:100FF40000F038FB401B6428F5D903206FE1514B06
:101004005B6813F4800FBAD14E4B1B6813F0020FC8
:1010140003D0E368012B40F05F814A4A136823F050
:10102400F803216943EAC1031360236813F0080F2E
:1010340049D06369002B33D0434B0122C3F8802E7F
:1010440000F010FB05463F4B5B6F13F0020F3AD1E3
:1010540000F008FB401B0228F5D903203FE1394B7F
:101064005B6813F4800F90D1CEE7364A136823F0FF
:10107400F803216943EAC1031360D6E7324B002227
:101084001A6000F0EFFA05462E4B1B6813F0020FAE
:10109400CBD000F0E7FA401B0228F5D903201EE16B
:1010A400294B0022C3F8802E00F0DCFA0546254BBC
:1010B4005B6F13F0020F06D000F0D4FA401B022835
:1010C400F5D903200BE1236813F0040F76D01D4BF0
:1010D4001B6C13F0805F33D100230193194B1A6CFE
:1010E40042F080521A641B6C03F080530193019BFD
:1010F4000125164B1B6813F4807F29D0A368012BAC
:101104003AD0052B3ED00F4B1A6F22F001021A671A
:101114001A6F22F004021A67A368002B3CD000F077
:10112400A1FA0646074B1B6F13F0020F45D100F0DE
:1011340099FA801B41F288339842F3D90320CEE018
:101144000025D6E700380240000047420070004006
:101154006B4A136843F48073136000F083FA064605
:10116400674B1B6813F4807FC8D100F07BFA801BA7
:101174000228F5D90320B2E0624A136F43F0010359
:101184001367C9E75F4B1A6F42F004021A671A6FBC
:1011940042F001021A67BFE700F064FA0646594BB1
:1011A4001B6F13F0020F08D000F05CFA801B41F2B1
:1011B40088339842F3D9032091E0EDB9A369002B59
:1011C40000F08C804F4A926802F00C02082A54D036
:1011D400022B17D04C4B00221A6600F043FA044647
:1011E400484B1B6813F0007F45D000F03BFA001B0E
:1011F4000228F5D9032072E0424A136C23F080538D
:101204001364DBE7404B00221A6600F02BFA054614
:101214003C4B1B6813F0007F06D000F023FA401B00
:101224000228F5D903205AE0E369226A1343626A6B
:1012340043EA8213A26A5208013A43EA0243E26A89
:1012440043EA0263226B43EA02732E4A53602E4B35
:1012540001221A6600F006FA04462A4B1B6813F0B2
:10126400007F06D100F0FEF9001B0228F5D9032007
:1012740035E0002033E0002031E0012B31D0214B58
:101284005B6803F48001E26991422CD103F03F02D0
:10129400216A8A4229D1616A47F6C0721A40B2EBC8
:1012A400811F24D103F44031A26A5208013AB1EB00
:1012B400024F1ED103F07062E16AB2EB016F1AD1E2
:1012C40003F0E043226BB3EB027F16D1002006E06B
:1012D40001207047012002E0012000E0002002B05C
:1012E40070BD0120FBE70120F9E70120F7E70120A9
:1012F400F5E70120F3E70120F1E70120EFE700BF64
:1013040000700040003802400000474200230F2BC9
:1013140000F2E38070B582B065E085684FEA430E61
:10132400032404FA0EF425EA0405CC6804FA0EF446
:101334002C438460446824EA02044A68C2F300121D
:101344009A40224342605CE0DC08083450F82420D0
:1013540003F00705AD004FF00F0E0EFA05FE22EA6A
:101364000E0E0A69AA4042EA0E0240F824205CE00C
:10137400062200E0002202FA0EF22A430234574DFC
:1013840045F82420564A94686FEA0C0224EA0C05B6
:101394004E6816F4801F01D04CEA0405504CA56039
:1013A400E46802EA04054E6816F4001F01D04CEA12
:1013B40004054B4CE560646802EA04054E6816F4C3
:1013C400003F01D04CEA0405454C65602468224086
:1013D4004D6815F4803F01D04CEA0402404C226071
:1013E40001330F2B77D801229A400C6804EA020CCF
:1013F40032EA0404F4D14C6804F00304013C012CE7
:101404008BD94A6802F00302032A09D0C4685D003C
:101414000322AA4024EA02048A68AA402243C26042
:101424004A6802F00302022A8ED004684FEA430E8F
:10143400032202FA0EF224EA02044A6802F00302CA
:1014440002FA0EF2224302604A6812F4403FC7D007
:1014540000220192234A546C44F480445464526C34
:1014640002F480420192019A9C08A51C1B4A52F87E
:10147400255003F0030E4FEA8E0E0F2202FA0EF2ED
:1014840025EA0205184A90423FF474AF02F58062DF
:10149400904216D002F58062904214D002F5806228
:1014A400904212D002F58062904210D002F5806220
:1014B40090420ED002F5806290423FF459AF072269
:1014C40059E7012257E7022255E7032253E7042292
:1014D40051E705224FE702B070BD70470038014064
:1014E400003C014000380240000002400AB1816122
:1014F4007047090481617047002808DB0901C9B2FB
:1015040000F1604000F5614080F80013704700F07E
:101514000F000901C9B2014B1954704714ED00E0E2
:1015240000B500F00700C0F1070CBCF1040F28BFA0
:101534004FF0040C031D062B0FD9C31E4FF0FF3EC2
:101544000EFA0CF021EA000199400EFA03FE22EA99
:101554000E0241EA02005DF804FB0023EEE70000FE
:10156400074AD36823F4E0631B041B0C000200F455
:10157400E060034343F0BF6343F40033D360704738
:1015840000ED00E010B50446054BD868C0F3022016
:10159400FFF7C6FF01462046FFF7AEFF10BD00BFB0
:1015A40000ED00E00138B0F1807F0BD24FF0E02372
:1015B4005861054AF02182F823100020986107221F
:1015C4001A6170470120704700ED00E010B5044631
:1015D4000E4B1A784FF47A73B3FBF2F30C4A10688B
:1015E400B0FBF3F0FFF7DEFF68B90F2C01D901203F
:1015F4000AE0002221464FF0FF30FFF7C3FF054BFE
:101604001C60002000E0012010BD00BF000000208D
:10161400080000200400002008B50B4B1A6842F4AF
:1016240000721A601A6842F480621A601A6842F4FE
:1016340080721A600320FFF793FF0F20FFF7C6FFA5
:10164400FFF726F9002008BD003C0240034A116858
:10165400034B1B780B441360704700BFA0010020AC
:1016640000000020014B1868704700BFA001002053
:1016740030B4036A026A22F0010202624268846999
:1016840024F0730C0C6844EA0C0423F0020C8B68FD
:1016940043EA0C03114DA84203D005F58065A84226
:1016A40005D123F00803CD682B4323F004030B4D2D
:1016B400A84203D005F58065A84207D122F4407200
:1016C4004D6945EA020C8A6942EA0C02426084616F
:1016D4004A684263036230BC704700BF00000140A7
:1016E40030B4036A026A22F4807202624268C469F6
:1016F40024F0730C0C6844EA0C0523F400738C6822
:1017040043EA0423114CA04203D004F58064A042B0
:1017140006D123F40063CC6843EA042323F48063F2
:101724000A4CA04203D004F58064A04207D122F4FD
:1017340040524C6942EA04128C6942EA0412426043
:10174400C5614A68C263036230BC7047000001404F
:1017540030B4036A026A22F4805202624468C269A5
:1017640022F4E6420D6842EA052223F400538D6810
:1017740043EA0533094DA84203D005F58065A84224
:1017840004D124F480444D6944EA85144460C26160
:101794004A680264036230BC704700BF0000014025
:1017A40010B4036A046A24F001040462846924F016
:1017B400F00C4CEA021223F00A030B438261036229
:1017C4005DF8044B704710B4036A046A24F01004F3
:1017D4000462846924F4704C4CEA023223F0A003BE
:1017E40043EA0113826103625DF8044B7047836826
:1017F40023F070030B4343F0070383607047704783
:101804000368344A904212D0B0F1804F0FD0A2F551
:101814007C4290420BD002F58062904207D002F5E0
:101824008062904203D002F57842904203D123F0C3
:1018340070034A681343274A90422AD0B0F1804F7C
:1018440027D0A2F57C42904223D002F580629042D8
:101854001FD002F5806290421BD002F5784290427C
:1018640017D002F57052904213D002F58062904274
:101874000FD002F5806290420BD0A2F598329042CC
:1018840007D002F58062904203D002F58062904254
:1018940003D123F44073CA68134323F080034A69D5
:1018A400134303608B68C3620B688362094B9842DD
:1018B40003D003F58063984201D10B6903630123CC
:1018C4004361036913F0010F03D0036923F001039B
:1018D400036170470000014040B310B5044690F81E
:1018E4003D30F3B1022384F83D30214651F8040B16
:1018F400FFF786FF012384F8463084F83E3084F8ED
:101904003F3084F8403084F8413084F8423084F821
:10191400433084F8443084F8453084F83D30002066
:1019240010BD80F83C30FFF707F8DBE70120704773
:1019340040B310B5044690F83D30F3B1022384F867
:101944003D30214651F8040BFFF75AFF012384F878
:10195400463084F83E3084F83F3084F8403084F8D0
:10196400413084F8423084F8433084F8443084F8B9
:10197400453084F83D30002010BD80F83C30FFF73E
:101984003EFFDBE70120704730B4036A026A22F0AD
:10199400100202624468826922F4E6420D6842EA57
:1019A400052223F020038D6843EA0513114DA84254
:1019B40003D005F58065A84206D123F08003CD68E5
:1019C40043EA051323F040030A4DA84203D005F56A
:1019D4008065A84207D124F440644D6944EA850433
:1019E4008D6944EA8504446082614A6882630362C3
:1019F40030BC70470000014038B590F83C30012BF2
:101A040066D004460D46012380F83C300C2A5AD88F
:101A1400DFE802F0075959591B5959593059595996
:101A240044000068FFF724FE2268936943F008032A
:101A340093612268936923F0040393612268936994
:101A440029690B43936100203EE00068FFF79CFF87
:101A54002268936943F4006393612268936923F4D1
:101A64008063936122689369296943EA012393613E
:101A7400002029E00068FFF733FE2268D36943F0B1
:101A84000803D3612268D36923F00403D361226875
:101A9400D36929690B43D361002015E00068FFF77F
:101AA40057FE2268D36943F40063D3612268D36983
:101AB40023F48063D3612268D369296943EA01234B
:101AC400D361002000E00120002384F83C3038BDBD
:101AD4000220FCE710B4846824F47F4C42EA032219
:101AE4000A4342EA0C0282605DF8044B704790F8A6
:101AF4003C30012B78D010B50446012380F83C30EB
:101B0400022380F83D300268936823F47F4323F076
:101B1400770393600B68602B4CD029D8402B54D0AA
:101B24000CD9502B22D1CA6849680068FFF738FEE7
:101B340050212068FFF75BFE002005E0202B0DD02C
:101B440009D9302B0AD00120012384F83D30002329
:101B540084F83C3010BD0BB1102B05D11946206818
:101B6400FFF745FE0020EFE70120EDE70120EBE75A
:101B7400B3F5805F34D0B3F5005F0CD1CB684A680D
:101B840089680068FFF7A6FF2268936843F48043DE
:101B940093600020D8E7702B24D1CB684A68896809
:101BA4000068FFF797FF2268936843F07703936018
:101BB4000020C9E7CA6849680068FFF704FE60218D
:101BC4002068FFF714FE0020BEE7CA684968006871
:101BD400FFF7E6FD40212068FFF709FE0020B3E788
:101BE4000020B1E70120AFE70220704790F83C20C5
:101BF400012A3DD010B40346012280F83C20022281
:101C040080F83D2002685068946820F0700C0868E1
:101C140040EA0C0050601A68164882421AD0B2F1A9
:101C2400804F17D0A0F57C40824213D000F580602D
:101C340082420FD000F5806082420BD000F57840DC
:101C4400824207D000F57050824203D0A0F5943050
:101C5400824204D124F08004496821439160012226
:101C640083F83D20002083F83C005DF8044B704766
:101C7400022070470000014010B504460268136951
:101C840023F44053C1680B431361836802691A4308
:101C940043691A43C3691A430168CB6823F41643A2
:101CA40023F00C031343CB600268536923F440739D
:101CB40081690B4353610368314A934206D002F5AC
:101CC4008062934202D0FFF71DF801E0FFF72AF883
:101CD400E369B3F5004F29D00021031849411B18CB
:101CE40041F10001C90041EA5371DB00181863682F
:101CF4004FEA83024FEA937341F10001FEF780FA41
:101D0400204AA2FB00314909642303FB11031B0190
:101D14003233A2FB03235B0903F0F00202EB01124E
:101D240003F00F03216813448B6010BD00230218D5
:101D340043EB0301121841F10001C90041EA527159
:101D4400D200101841F10001626892185B41FEF75D
:101D540057FA0C4AA2FB00314909642303FB11031F
:101D6400DB003233A2FB03235B095A0002F4F8724E
:101D740002EB011203F00703216813448B60D4E7DC
:101D8400001001401F85EB5160B310B5044690F874
:101D9400413013B3242384F841302268D36823F4F8
:101DA4000053D3602046FFF767FF2268136923F4CA
:101DB400904313612268536923F02A035361226814
:101DC400D36843F40053D36000206064202384F874
:101DD400413084F84230606310BD80F84030FEF733
:101DE400EFFDD7E701207047034AD2F8883043F467
:101DF4007003C2F88830704700ED00E0DFF834D09B
:101E0400FFF7F2FF0C480D490D4A002302E0D458B5
:101E1400C4500433C4188C42F9D30A4A0A4C002330
:101E240001E013600432A242FBD300F019F8FEF77C
:101E340011FD704700000220000000200C0000206B
:101E4400EC1E00080C000020A4010020FEE7024460
:101E54000346934200D1704703F8011BF9E70000E1
:101E640070B50D4D0D4C641BA4100026A64209D17B
:101E74000B4D0C4C00F018F8641BA4100026A6426D
:101E840005D170BD55F8043B98470136EEE755F887
:101E9400043B98470136F2E7E41E0008E41E0008FC
:101EA400E41E0008E81E0008F8B500BFF8BC08BC32
:101EB4009E467047F8B500BFF8BC08BC9E46704704
:101EC4000000000001020304000000000000000004
:081ED4000102030406070809DE
:081EDC0058E3FF7F0100000044
:041EE400E901000808
:041EE800C501000828
:0C1EEC0001000000100000000024F400C1
:0400000508001E01D0
:00000001FF
